{
  "_format": "hh-sol-artifact-1",
  "contractName": "arrayDemo",
  "sourceName": "contracts/arrayDemo.sol",
  "abi": [
    {
      "inputs": [
        {
          "internalType": "uint256",
          "name": "",
          "type": "uint256"
        }
      ],
      "name": "array",
      "outputs": [
        {
          "internalType": "int256",
          "name": "",
          "type": "int256"
        }
      ],
      "stateMutability": "view",
      "type": "function"
    },
    {
      "inputs": [],
      "name": "getArray",
      "outputs": [
        {
          "internalType": "int256[]",
          "name": "",
          "type": "int256[]"
        }
      ],
      "stateMutability": "view",
      "type": "function"
    },
    {
      "inputs": [
        {
          "internalType": "uint256",
          "name": "index",
          "type": "uint256"
        }
      ],
      "name": "getElement",
      "outputs": [
        {
          "internalType": "int256",
          "name": "",
          "type": "int256"
        }
      ],
      "stateMutability": "view",
      "type": "function"
    },
    {
      "inputs": [],
      "name": "getLength",
      "outputs": [
        {
          "internalType": "uint256",
          "name": "",
          "type": "uint256"
        }
      ],
      "stateMutability": "view",
      "type": "function"
    },
    {
      "inputs": [
        {
          "internalType": "int256",
          "name": "i",
          "type": "int256"
        }
      ],
      "name": "put",
      "outputs": [],
      "stateMutability": "nonpayable",
      "type": "function"
    }
  ],
  "bytecode": "0x6080604052348015600f57600080fd5b506105178061001f6000396000f3fe608060405234801561001057600080fd5b50600436106100575760003560e01c806338d941931461005c5780633a7d22bc1461008c578063be1c766b146100bc578063d504ea1d146100da578063f84c854a146100f8575b600080fd5b61007660048036038101906100719190610271565b610114565b60405161008391906102b7565b60405180910390f35b6100a660048036038101906100a19190610271565b610138565b6040516100b391906102b7565b60405180910390f35b6100c46101a6565b6040516100d191906102e1565b60405180910390f35b6100e26101b2565b6040516100ef91906103ba565b60405180910390f35b610112600480360381019061010d9190610408565b61020a565b005b6000818154811061012457600080fd5b906000526020600020016000915090505481565b600080805490508210610180576040517f08c379a000000000000000000000000000000000000000000000000000000000815260040161017790610492565b60405180910390fd5b60008281548110610194576101936104b2565b5b90600052602060002001549050919050565b60008080549050905090565b6060600080548060200260200160405190810160405280929190818152602001828054801561020057602002820191906000526020600020905b8154815260200190600101908083116101ec575b5050505050905090565b600081908060018154018082558091505060019003906000526020600020016000909190919091505550565b600080fd5b6000819050919050565b61024e8161023b565b811461025957600080fd5b50565b60008135905061026b81610245565b92915050565b60006020828403121561028757610286610236565b5b60006102958482850161025c565b91505092915050565b6000819050919050565b6102b18161029e565b82525050565b60006020820190506102cc60008301846102a8565b92915050565b6102db8161023b565b82525050565b60006020820190506102f660008301846102d2565b92915050565b600081519050919050565b600082825260208201905092915050565b6000819050602082019050919050565b6103318161029e565b82525050565b60006103438383610328565b60208301905092915050565b6000602082019050919050565b6000610367826102fc565b6103718185610307565b935061037c83610318565b8060005b838110156103ad5781516103948882610337565b975061039f8361034f565b925050600181019050610380565b5085935050505092915050565b600060208201905081810360008301526103d4818461035c565b905092915050565b6103e58161029e565b81146103f057600080fd5b50565b600081359050610402816103dc565b92915050565b60006020828403121561041e5761041d610236565b5b600061042c848285016103f3565b91505092915050565b600082825260208201905092915050565b7f496e646578206f7574206f6620626f756e647300000000000000000000000000600082015250565b600061047c601383610435565b915061048782610446565b602082019050919050565b600060208201905081810360008301526104ab8161046f565b9050919050565b7f4e487b7100000000000000000000000000000000000000000000000000000000600052603260045260246000fdfea26469706673582212204617867e42aa078a2ee94ddec5a1d82666f66be605055c1a569c8acbe7193b4a64736f6c634300081c0033",
  "linkReferences": {},
  "deployedLinkReferences": {}
}