{
  "_format": "hh-sol-artifact-1",
  "contractName": "Purchase",
  "sourceName": "contracts/Purchase.sol",
  "abi": [
    {
      "inputs": [],
      "stateMutability": "payable",
      "type": "constructor"
    },
    {
      "anonymous": false,
      "inputs": [
        {
          "indexed": false,
          "internalType": "address",
          "name": "seller",
          "type": "address"
        }
      ],
      "name": "Aborted",
      "type": "event"
    },
    {
      "anonymous": false,
      "inputs": [
        {
          "indexed": false,
          "internalType": "address",
          "name": "buyer",
          "type": "address"
        },
        {
          "indexed": false,
          "internalType": "address",
          "name": "seller",
          "type": "address"
        },
        {
          "indexed": false,
          "internalType": "uint256",
          "name": "value",
          "type": "uint256"
        }
      ],
      "name": "ItemReceived",
      "type": "event"
    },
    {
      "anonymous": false,
      "inputs": [
        {
          "indexed": false,
          "internalType": "address",
          "name": "buyer",
          "type": "address"
        },
        {
          "indexed": false,
          "internalType": "uint256",
          "name": "value",
          "type": "uint256"
        }
      ],
      "name": "PurchaseConfirmed",
      "type": "event"
    },
    {
      "inputs": [],
      "name": "abort",
      "outputs": [],
      "stateMutability": "nonpayable",
      "type": "function"
    },
    {
      "inputs": [],
      "name": "buyer",
      "outputs": [
        {
          "internalType": "address",
          "name": "",
          "type": "address"
        }
      ],
      "stateMutability": "view",
      "type": "function"
    },
    {
      "inputs": [],
      "name": "confirmPurchase",
      "outputs": [],
      "stateMutability": "payable",
      "type": "function"
    },
    {
      "inputs": [],
      "name": "confirmReceived",
      "outputs": [],
      "stateMutability": "nonpayable",
      "type": "function"
    },
    {
      "inputs": [],
      "name": "getBalance",
      "outputs": [
        {
          "internalType": "uint256",
          "name": "",
          "type": "uint256"
        }
      ],
      "stateMutability": "view",
      "type": "function"
    },
    {
      "inputs": [],
      "name": "seller",
      "outputs": [
        {
          "internalType": "address",
          "name": "",
          "type": "address"
        }
      ],
      "stateMutability": "view",
      "type": "function"
    },
    {
      "inputs": [],
      "name": "state",
      "outputs": [
        {
          "internalType": "enum Purchase.State",
          "name": "",
          "type": "uint8"
        }
      ],
      "stateMutability": "view",
      "type": "function"
    },
    {
      "inputs": [],
      "name": "value",
      "outputs": [
        {
          "internalType": "uint256",
          "name": "",
          "type": "uint256"
        }
      ],
      "stateMutability": "view",
      "type": "function"
    }
  ],
  "bytecode": "0x608060405233600160006101000a81548173ffffffffffffffffffffffffffffffffffffffff021916908373ffffffffffffffffffffffffffffffffffffffff1602179055506002346100529190610140565b6000819055503460005460026100689190610171565b146100a8576040517f08c379a000000000000000000000000000000000000000000000000000000000815260040161009f90610210565b60405180910390fd5b6000600260146101000a81548160ff021916908360028111156100ce576100cd610230565b5b021790555061025f565b6000819050919050565b7f4e487b7100000000000000000000000000000000000000000000000000000000600052601260045260246000fd5b7f4e487b7100000000000000000000000000000000000000000000000000000000600052601160045260246000fd5b600061014b826100d8565b9150610156836100d8565b925082610166576101656100e2565b5b828204905092915050565b600061017c826100d8565b9150610187836100d8565b9250828202610195816100d8565b915082820484148315176101ac576101ab610111565b5b5092915050565b600082825260208201905092915050565b7f56616c75652068617320746f206265206576656e2e0000000000000000000000600082015250565b60006101fa6015836101b3565b9150610205826101c4565b602082019050919050565b60006020820190508181036000830152610229816101ed565b9050919050565b7f4e487b7100000000000000000000000000000000000000000000000000000000600052602160045260246000fd5b610c508061026e6000396000f3fe60806040526004361061007b5760003560e01c80637150d8ae1161004e5780637150d8ae1461011857806373fac6f014610143578063c19d93fb1461015a578063d6960697146101855761007b565b806308551a531461008057806312065fe0146100ab57806335a063b4146100d65780633fa4f245146100ed575b600080fd5b34801561008c57600080fd5b5061009561018f565b6040516100a29190610873565b60405180910390f35b3480156100b757600080fd5b506100c06101b5565b6040516100cd91906108a7565b60405180910390f35b3480156100e257600080fd5b506100eb6101bd565b005b3480156100f957600080fd5b506101026103b3565b60405161010f91906108a7565b60405180910390f35b34801561012457600080fd5b5061012d6103b9565b60405161013a9190610873565b60405180910390f35b34801561014f57600080fd5b506101586103df565b005b34801561016657600080fd5b5061016f61068c565b60405161017c9190610939565b60405180910390f35b61018d61069f565b005b600160009054906101000a900473ffffffffffffffffffffffffffffffffffffffff1681565b600047905090565b600160009054906101000a900473ffffffffffffffffffffffffffffffffffffffff1673ffffffffffffffffffffffffffffffffffffffff163373ffffffffffffffffffffffffffffffffffffffff161461024d576040517f08c379a0000000000000000000000000000000000000000000000000000000008152600401610244906109b1565b60405180910390fd5b6000806002811115610262576102616108c2565b5b600260149054906101000a900460ff166002811115610284576102836108c2565b5b146102c4576040517f08c379a00000000000000000000000000000000000000000000000000000000081526004016102bb90610a1d565b60405180910390fd5b60028060146101000a81548160ff021916908360028111156102e9576102e86108c2565b5b0217905550600160009054906101000a900473ffffffffffffffffffffffffffffffffffffffff1673ffffffffffffffffffffffffffffffffffffffff166108fc479081150290604051600060405180830381858888f19350505050158015610356573d6000803e3d6000fd5b507f13c3922f06c44c3cac6a2c721f8ec8db793360b0180d5e560ca2028de2037eaa600160009054906101000a900473ffffffffffffffffffffffffffffffffffffffff166040516103a89190610873565b60405180910390a150565b60005481565b600260009054906101000a900473ffffffffffffffffffffffffffffffffffffffff1681565b600260009054906101000a900473ffffffffffffffffffffffffffffffffffffffff1673ffffffffffffffffffffffffffffffffffffffff163373ffffffffffffffffffffffffffffffffffffffff161461046f576040517f08c379a000000000000000000000000000000000000000000000000000000000815260040161046690610a89565b60405180910390fd5b6001806002811115610484576104836108c2565b5b600260149054906101000a900460ff1660028111156104a6576104a56108c2565b5b146104e6576040517f08c379a00000000000000000000000000000000000000000000000000000000081526004016104dd90610a1d565b60405180910390fd5b60028060146101000a81548160ff0219169083600281111561050b5761050a6108c2565b5b021790555060008054905060008160005460026105289190610ad8565b6105329190610b1a565b9050600260009054906101000a900473ffffffffffffffffffffffffffffffffffffffff1673ffffffffffffffffffffffffffffffffffffffff166108fc839081150290604051600060405180830381858888f1935050505015801561059c573d6000803e3d6000fd5b50600160009054906101000a900473ffffffffffffffffffffffffffffffffffffffff1673ffffffffffffffffffffffffffffffffffffffff166108fc829081150290604051600060405180830381858888f19350505050158015610605573d6000803e3d6000fd5b507f977d335cc268af836f9e8542f5c430c79e387ceb4a005d8aa05350b655fd65d3600260009054906101000a900473ffffffffffffffffffffffffffffffffffffffff16600160009054906101000a900473ffffffffffffffffffffffffffffffffffffffff1660005460405161067f93929190610b4e565b60405180910390a1505050565b600260149054906101000a900460ff1681565b60008060028111156106b4576106b36108c2565b5b600260149054906101000a900460ff1660028111156106d6576106d56108c2565b5b14610716576040517f08c379a000000000000000000000000000000000000000000000000000000000815260040161070d90610a1d565b60405180910390fd5b60005460026107259190610ad8565b341480610767576040517f08c379a000000000000000000000000000000000000000000000000000000000815260040161075e90610bd1565b60405180910390fd5b33600260006101000a81548173ffffffffffffffffffffffffffffffffffffffff021916908373ffffffffffffffffffffffffffffffffffffffff1602179055506001600260146101000a81548160ff021916908360028111156107ce576107cd6108c2565b5b02179055507fa29484a0d47153a96f00a1369c6885bbc89e95e35273ee97c943c440f7c4c282600260009054906101000a900473ffffffffffffffffffffffffffffffffffffffff1634604051610826929190610bf1565b60405180910390a15050565b600073ffffffffffffffffffffffffffffffffffffffff82169050919050565b600061085d82610832565b9050919050565b61086d81610852565b82525050565b60006020820190506108886000830184610864565b92915050565b6000819050919050565b6108a18161088e565b82525050565b60006020820190506108bc6000830184610898565b92915050565b7f4e487b7100000000000000000000000000000000000000000000000000000000600052602160045260246000fd5b60038110610902576109016108c2565b5b50565b6000819050610913826108f1565b919050565b600061092382610905565b9050919050565b61093381610918565b82525050565b600060208201905061094e600083018461092a565b92915050565b600082825260208201905092915050565b7f4f6e6c792073656c6c65722063616e2063616c6c20746869732e000000000000600082015250565b600061099b601a83610954565b91506109a682610965565b602082019050919050565b600060208201905081810360008301526109ca8161098e565b9050919050565b7f496e76616c69642073746174652e000000000000000000000000000000000000600082015250565b6000610a07600e83610954565b9150610a12826109d1565b602082019050919050565b60006020820190508181036000830152610a36816109fa565b9050919050565b7f4f6e6c792062757965722063616e2063616c6c20746869732e00000000000000600082015250565b6000610a73601983610954565b9150610a7e82610a3d565b602082019050919050565b60006020820190508181036000830152610aa281610a66565b9050919050565b7f4e487b7100000000000000000000000000000000000000000000000000000000600052601160045260246000fd5b6000610ae38261088e565b9150610aee8361088e565b9250828202610afc8161088e565b91508282048414831517610b1357610b12610aa9565b5b5092915050565b6000610b258261088e565b9150610b308361088e565b9250828203905081811115610b4857610b47610aa9565b5b92915050565b6000606082019050610b636000830186610864565b610b706020830185610864565b610b7d6040830184610898565b949350505050565b7f436f6e646974696f6e206e6f74206d6574000000000000000000000000000000600082015250565b6000610bbb601183610954565b9150610bc682610b85565b602082019050919050565b60006020820190508181036000830152610bea81610bae565b9050919050565b6000604082019050610c066000830185610864565b610c136020830184610898565b939250505056fea264697066735822122012b00e0975e7145ecfecc26a3fbba6a8426f4982331da8c9d18228f326620e3c64736f6c634300081c0033",
  "linkReferences": {},
  "deployedLinkReferences": {}
}