{
  "_format": "hh-sol-artifact-1",
  "contractName": "SimpleAuction",
  "sourceName": "contracts/SimpleAuction.sol",
  "abi": [
    {
      "inputs": [
        {
          "internalType": "uint256",
          "name": "_biddingTime",
          "type": "uint256"
        },
        {
          "internalType": "address",
          "name": "_beneficiary",
          "type": "address"
        }
      ],
      "stateMutability": "nonpayable",
      "type": "constructor"
    },
    {
      "anonymous": false,
      "inputs": [
        {
          "indexed": false,
          "internalType": "address",
          "name": "winner",
          "type": "address"
        },
        {
          "indexed": false,
          "internalType": "uint256",
          "name": "amount",
          "type": "uint256"
        }
      ],
      "name": "AuctionEnded",
      "type": "event"
    },
    {
      "anonymous": false,
      "inputs": [
        {
          "indexed": false,
          "internalType": "address",
          "name": "bidder",
          "type": "address"
        },
        {
          "indexed": false,
          "internalType": "uint256",
          "name": "amount",
          "type": "uint256"
        }
      ],
      "name": "HighestBidIncreased",
      "type": "event"
    },
    {
      "inputs": [],
      "name": "auctionEnd",
      "outputs": [],
      "stateMutability": "nonpayable",
      "type": "function"
    },
    {
      "inputs": [],
      "name": "auctionEndTime",
      "outputs": [
        {
          "internalType": "uint256",
          "name": "",
          "type": "uint256"
        }
      ],
      "stateMutability": "view",
      "type": "function"
    },
    {
      "inputs": [],
      "name": "beneficiary",
      "outputs": [
        {
          "internalType": "address",
          "name": "",
          "type": "address"
        }
      ],
      "stateMutability": "view",
      "type": "function"
    },
    {
      "inputs": [],
      "name": "bid",
      "outputs": [],
      "stateMutability": "payable",
      "type": "function"
    },
    {
      "inputs": [],
      "name": "ended",
      "outputs": [
        {
          "internalType": "bool",
          "name": "",
          "type": "bool"
        }
      ],
      "stateMutability": "view",
      "type": "function"
    },
    {
      "inputs": [],
      "name": "highestBid",
      "outputs": [
        {
          "internalType": "uint256",
          "name": "",
          "type": "uint256"
        }
      ],
      "stateMutability": "view",
      "type": "function"
    },
    {
      "inputs": [],
      "name": "highestBidder",
      "outputs": [
        {
          "internalType": "address",
          "name": "",
          "type": "address"
        }
      ],
      "stateMutability": "view",
      "type": "function"
    },
    {
      "inputs": [
        {
          "internalType": "address",
          "name": "",
          "type": "address"
        }
      ],
      "name": "pendingReturns",
      "outputs": [
        {
          "internalType": "uint256",
          "name": "",
          "type": "uint256"
        }
      ],
      "stateMutability": "view",
      "type": "function"
    },
    {
      "inputs": [],
      "name": "withdraw",
      "outputs": [],
      "stateMutability": "nonpayable",
      "type": "function"
    }
  ],
  "bytecode": "0x608060405234801561001057600080fd5b50604051610e81380380610e8183398181016040528101906100329190610193565b600073ffffffffffffffffffffffffffffffffffffffff168173ffffffffffffffffffffffffffffffffffffffff16036100a1576040517f08c379a000000000000000000000000000000000000000000000000000000000815260040161009890610256565b60405180910390fd5b806000806101000a81548173ffffffffffffffffffffffffffffffffffffffff021916908373ffffffffffffffffffffffffffffffffffffffff16021790555081426100ed91906102a5565b60018190555050506102d9565b600080fd5b6000819050919050565b610112816100ff565b811461011d57600080fd5b50565b60008151905061012f81610109565b92915050565b600073ffffffffffffffffffffffffffffffffffffffff82169050919050565b600061016082610135565b9050919050565b61017081610155565b811461017b57600080fd5b50565b60008151905061018d81610167565b92915050565b600080604083850312156101aa576101a96100fa565b5b60006101b885828601610120565b92505060206101c98582860161017e565b9150509250929050565b600082825260208201905092915050565b7f42656e65666963696172792063616e6e6f74206265207a65726f20616464726560008201527f7373000000000000000000000000000000000000000000000000000000000000602082015250565b60006102406022836101d3565b915061024b826101e4565b604082019050919050565b6000602082019050818103600083015261026f81610233565b9050919050565b7f4e487b7100000000000000000000000000000000000000000000000000000000600052601160045260246000fd5b60006102b0826100ff565b91506102bb836100ff565b92508282019050808211156102d3576102d2610276565b5b92915050565b610b99806102e86000396000f3fe6080604052600436106100865760003560e01c806338af3eed1161005957806338af3eed146101145780633ccfd60b1461013f5780634b449cba1461015657806391f9015714610181578063d57bde79146101ac57610086565b806312fa6feb1461008b5780631998aeef146100b657806326b387bb146100c05780632a24f46c146100fd575b600080fd5b34801561009757600080fd5b506100a06101d7565b6040516100ad9190610735565b60405180910390f35b6100be6101ea565b005b3480156100cc57600080fd5b506100e760048036038101906100e291906107b3565b610416565b6040516100f491906107f9565b60405180910390f35b34801561010957600080fd5b5061011261042e565b005b34801561012057600080fd5b506101296105af565b6040516101369190610823565b60405180910390f35b34801561014b57600080fd5b506101546105d3565b005b34801561016257600080fd5b5061016b6106e8565b60405161017891906107f9565b60405180910390f35b34801561018d57600080fd5b506101966106ee565b6040516101a39190610823565b60405180910390f35b3480156101b857600080fd5b506101c1610714565b6040516101ce91906107f9565b60405180910390f35b600560009054906101000a900460ff1681565b600560009054906101000a900460ff161561023a576040517f08c379a00000000000000000000000000000000000000000000000000000000081526004016102319061089b565b60405180910390fd5b600154421061027e576040517f08c379a000000000000000000000000000000000000000000000000000000000815260040161027590610907565b60405180910390fd5b60035434116102c2576040517f08c379a00000000000000000000000000000000000000000000000000000000081526004016102b990610973565b60405180910390fd5b600073ffffffffffffffffffffffffffffffffffffffff16600260009054906101000a900473ffffffffffffffffffffffffffffffffffffffff1673ffffffffffffffffffffffffffffffffffffffff16146103935760035460046000600260009054906101000a900473ffffffffffffffffffffffffffffffffffffffff1673ffffffffffffffffffffffffffffffffffffffff1673ffffffffffffffffffffffffffffffffffffffff168152602001908152602001600020600082825461038b91906109c2565b925050819055505b33600260006101000a81548173ffffffffffffffffffffffffffffffffffffffff021916908373ffffffffffffffffffffffffffffffffffffffff160217905550346003819055507ff4757a49b326036464bec6fe419a4ae38c8a02ce3e68bf0809674f6aab8ad300333460405161040c9291906109f6565b60405180910390a1565b60046020528060005260406000206000915090505481565b600560009054906101000a900460ff1661047d576040517f08c379a000000000000000000000000000000000000000000000000000000000815260040161047490610a6b565b60405180910390fd5b6001544210156104c2576040517f08c379a00000000000000000000000000000000000000000000000000000000081526004016104b990610ad7565b60405180910390fd5b6001600560006101000a81548160ff0219169083151502179055506000600260009054906101000a900473ffffffffffffffffffffffffffffffffffffffff1690506000600354905060008054906101000a900473ffffffffffffffffffffffffffffffffffffffff1673ffffffffffffffffffffffffffffffffffffffff166108fc829081150290604051600060405180830381858888f19350505050158015610571573d6000803e3d6000fd5b507fdaec4582d5d9595688c8c98545fdd1c696d41c6aeaeb636737e84ed2f5c00eda82826040516105a39291906109f6565b60405180910390a15050565b60008054906101000a900473ffffffffffffffffffffffffffffffffffffffff1681565b6000600460003373ffffffffffffffffffffffffffffffffffffffff1673ffffffffffffffffffffffffffffffffffffffff1681526020019081526020016000205490506000810361062557506106e6565b60003373ffffffffffffffffffffffffffffffffffffffff166108fc839081150290604051600060405180830381858888f1935050505090508061069e576040517f08c379a000000000000000000000000000000000000000000000000000000000815260040161069590610b43565b60405180910390fd5b6000600460003373ffffffffffffffffffffffffffffffffffffffff1673ffffffffffffffffffffffffffffffffffffffff1681526020019081526020016000208190555050505b565b60015481565b600260009054906101000a900473ffffffffffffffffffffffffffffffffffffffff1681565b60035481565b60008115159050919050565b61072f8161071a565b82525050565b600060208201905061074a6000830184610726565b92915050565b600080fd5b600073ffffffffffffffffffffffffffffffffffffffff82169050919050565b600061078082610755565b9050919050565b61079081610775565b811461079b57600080fd5b50565b6000813590506107ad81610787565b92915050565b6000602082840312156107c9576107c8610750565b5b60006107d78482850161079e565b91505092915050565b6000819050919050565b6107f3816107e0565b82525050565b600060208201905061080e60008301846107ea565b92915050565b61081d81610775565b82525050565b60006020820190506108386000830184610814565b92915050565b600082825260208201905092915050565b7f41756374696f6e20616c726561647920656e6465640000000000000000000000600082015250565b600061088560158361083e565b91506108908261084f565b602082019050919050565b600060208201905081810360008301526108b481610878565b9050919050565b7f4269642061667465722061756374696f6e20656e640000000000000000000000600082015250565b60006108f160158361083e565b91506108fc826108bb565b602082019050919050565b60006020820190508181036000830152610920816108e4565b9050919050565b7f496e73756666696369656e742062696400000000000000000000000000000000600082015250565b600061095d60108361083e565b915061096882610927565b602082019050919050565b6000602082019050818103600083015261098c81610950565b9050919050565b7f4e487b7100000000000000000000000000000000000000000000000000000000600052601160045260246000fd5b60006109cd826107e0565b91506109d8836107e0565b92508282019050808211156109f0576109ef610993565b5b92915050565b6000604082019050610a0b6000830185610814565b610a1860208301846107ea565b9392505050565b7f41756374696f6e206e6f7420656e646564000000000000000000000000000000600082015250565b6000610a5560118361083e565b9150610a6082610a1f565b602082019050919050565b60006020820190508181036000830152610a8481610a48565b9050919050565b7f41756374696f6e206e6f742066696e6973686564000000000000000000000000600082015250565b6000610ac160148361083e565b9150610acc82610a8b565b602082019050919050565b60006020820190508181036000830152610af081610ab4565b9050919050565b7f5769746864726177616c206661696c6564000000000000000000000000000000600082015250565b6000610b2d60118361083e565b9150610b3882610af7565b602082019050919050565b60006020820190508181036000830152610b5c81610b20565b905091905056fea26469706673582212201a375c5192646180c588cb911ed488b4b6edeb046b07493942bb10690d413af764736f6c634300081c0033",
  "linkReferences": {},
  "deployedLinkReferences": {}
}